{
  "contractName": "SupplyChain",
  "abi": [
    {
      "constant": false,
      "inputs": [
        {
          "name": "account",
          "type": "address"
        }
      ],
      "name": "addConsumer",
      "outputs": [],
      "payable": false,
      "stateMutability": "nonpayable",
      "type": "function"
    },
    {
      "constant": true,
      "inputs": [
        {
          "name": "account",
          "type": "address"
        }
      ],
      "name": "isRetailer",
      "outputs": [
        {
          "name": "",
          "type": "bool"
        }
      ],
      "payable": false,
      "stateMutability": "view",
      "type": "function"
    },
    {
      "constant": false,
      "inputs": [],
      "name": "renounceConsumer",
      "outputs": [],
      "payable": false,
      "stateMutability": "nonpayable",
      "type": "function"
    },
    {
      "constant": false,
      "inputs": [],
      "name": "renounceDistributor",
      "outputs": [],
      "payable": false,
      "stateMutability": "nonpayable",
      "type": "function"
    },
    {
      "constant": false,
      "inputs": [],
      "name": "renounceOwnership",
      "outputs": [],
      "payable": false,
      "stateMutability": "nonpayable",
      "type": "function"
    },
    {
      "constant": false,
      "inputs": [
        {
          "name": "account",
          "type": "address"
        }
      ],
      "name": "addDistributor",
      "outputs": [],
      "payable": false,
      "stateMutability": "nonpayable",
      "type": "function"
    },
    {
      "constant": false,
      "inputs": [
        {
          "name": "account",
          "type": "address"
        }
      ],
      "name": "addFarmer",
      "outputs": [],
      "payable": false,
      "stateMutability": "nonpayable",
      "type": "function"
    },
    {
      "constant": false,
      "inputs": [],
      "name": "renounceFarmer",
      "outputs": [],
      "payable": false,
      "stateMutability": "nonpayable",
      "type": "function"
    },
    {
      "constant": true,
      "inputs": [
        {
          "name": "account",
          "type": "address"
        }
      ],
      "name": "isConsumer",
      "outputs": [
        {
          "name": "",
          "type": "bool"
        }
      ],
      "payable": false,
      "stateMutability": "view",
      "type": "function"
    },
    {
      "constant": true,
      "inputs": [],
      "name": "owner",
      "outputs": [
        {
          "name": "",
          "type": "address"
        }
      ],
      "payable": false,
      "stateMutability": "view",
      "type": "function"
    },
    {
      "constant": false,
      "inputs": [
        {
          "name": "account",
          "type": "address"
        }
      ],
      "name": "addRetailer",
      "outputs": [],
      "payable": false,
      "stateMutability": "nonpayable",
      "type": "function"
    },
    {
      "constant": true,
      "inputs": [
        {
          "name": "account",
          "type": "address"
        }
      ],
      "name": "isDistributor",
      "outputs": [
        {
          "name": "",
          "type": "bool"
        }
      ],
      "payable": false,
      "stateMutability": "view",
      "type": "function"
    },
    {
      "constant": true,
      "inputs": [],
      "name": "isOwner",
      "outputs": [
        {
          "name": "",
          "type": "bool"
        }
      ],
      "payable": false,
      "stateMutability": "view",
      "type": "function"
    },
    {
      "constant": true,
      "inputs": [
        {
          "name": "account",
          "type": "address"
        }
      ],
      "name": "isFarmer",
      "outputs": [
        {
          "name": "",
          "type": "bool"
        }
      ],
      "payable": false,
      "stateMutability": "view",
      "type": "function"
    },
    {
      "constant": false,
      "inputs": [],
      "name": "renounceRetailer",
      "outputs": [],
      "payable": false,
      "stateMutability": "nonpayable",
      "type": "function"
    },
    {
      "constant": false,
      "inputs": [
        {
          "name": "newOwner",
          "type": "address"
        }
      ],
      "name": "transferOwnership",
      "outputs": [],
      "payable": false,
      "stateMutability": "nonpayable",
      "type": "function"
    },
    {
      "inputs": [],
      "payable": false,
      "stateMutability": "nonpayable",
      "type": "constructor"
    },
    {
      "anonymous": false,
      "inputs": [
        {
          "indexed": false,
          "name": "upc",
          "type": "uint256"
        }
      ],
      "name": "Harvested",
      "type": "event"
    },
    {
      "anonymous": false,
      "inputs": [
        {
          "indexed": false,
          "name": "upc",
          "type": "uint256"
        }
      ],
      "name": "Processed",
      "type": "event"
    },
    {
      "anonymous": false,
      "inputs": [
        {
          "indexed": false,
          "name": "upc",
          "type": "uint256"
        }
      ],
      "name": "Packed",
      "type": "event"
    },
    {
      "anonymous": false,
      "inputs": [
        {
          "indexed": false,
          "name": "upc",
          "type": "uint256"
        }
      ],
      "name": "ForSale",
      "type": "event"
    },
    {
      "anonymous": false,
      "inputs": [
        {
          "indexed": false,
          "name": "upc",
          "type": "uint256"
        }
      ],
      "name": "Sold",
      "type": "event"
    },
    {
      "anonymous": false,
      "inputs": [
        {
          "indexed": false,
          "name": "upc",
          "type": "uint256"
        }
      ],
      "name": "Shipped",
      "type": "event"
    },
    {
      "anonymous": false,
      "inputs": [
        {
          "indexed": false,
          "name": "upc",
          "type": "uint256"
        }
      ],
      "name": "Received",
      "type": "event"
    },
    {
      "anonymous": false,
      "inputs": [
        {
          "indexed": false,
          "name": "upc",
          "type": "uint256"
        }
      ],
      "name": "Purchased",
      "type": "event"
    },
    {
      "anonymous": false,
      "inputs": [
        {
          "indexed": true,
          "name": "account",
          "type": "address"
        }
      ],
      "name": "ConsumerAdded",
      "type": "event"
    },
    {
      "anonymous": false,
      "inputs": [
        {
          "indexed": true,
          "name": "account",
          "type": "address"
        }
      ],
      "name": "ConsumerRemoved",
      "type": "event"
    },
    {
      "anonymous": false,
      "inputs": [
        {
          "indexed": true,
          "name": "account",
          "type": "address"
        }
      ],
      "name": "RetailerAdded",
      "type": "event"
    },
    {
      "anonymous": false,
      "inputs": [
        {
          "indexed": true,
          "name": "account",
          "type": "address"
        }
      ],
      "name": "RetailerRemoved",
      "type": "event"
    },
    {
      "anonymous": false,
      "inputs": [
        {
          "indexed": true,
          "name": "account",
          "type": "address"
        }
      ],
      "name": "DistributorAdded",
      "type": "event"
    },
    {
      "anonymous": false,
      "inputs": [
        {
          "indexed": true,
          "name": "account",
          "type": "address"
        }
      ],
      "name": "DistributorRemoved",
      "type": "event"
    },
    {
      "anonymous": false,
      "inputs": [
        {
          "indexed": true,
          "name": "account",
          "type": "address"
        }
      ],
      "name": "FarmerAdded",
      "type": "event"
    },
    {
      "anonymous": false,
      "inputs": [
        {
          "indexed": true,
          "name": "account",
          "type": "address"
        }
      ],
      "name": "FarmerRemoved",
      "type": "event"
    },
    {
      "anonymous": false,
      "inputs": [
        {
          "indexed": true,
          "name": "oldOwner",
          "type": "address"
        },
        {
          "indexed": true,
          "name": "newOwner",
          "type": "address"
        }
      ],
      "name": "TransferOwnership",
      "type": "event"
    },
    {
      "constant": false,
      "inputs": [],
      "name": "kill",
      "outputs": [],
      "payable": false,
      "stateMutability": "nonpayable",
      "type": "function"
    },
    {
      "constant": false,
      "inputs": [
        {
          "name": "_upc",
          "type": "uint256"
        },
        {
          "name": "_originFarmerID",
          "type": "address"
        },
        {
          "name": "_originFarmName",
          "type": "string"
        },
        {
          "name": "_originFarmInformation",
          "type": "string"
        },
        {
          "name": "_originFarmLatitude",
          "type": "string"
        },
        {
          "name": "_originFarmLongitude",
          "type": "string"
        },
        {
          "name": "_productNotes",
          "type": "string"
        }
      ],
      "name": "harvestItem",
      "outputs": [],
      "payable": false,
      "stateMutability": "nonpayable",
      "type": "function"
    },
    {
      "constant": false,
      "inputs": [
        {
          "name": "_upc",
          "type": "uint256"
        }
      ],
      "name": "processItem",
      "outputs": [],
      "payable": false,
      "stateMutability": "nonpayable",
      "type": "function"
    },
    {
      "constant": false,
      "inputs": [
        {
          "name": "_upc",
          "type": "uint256"
        }
      ],
      "name": "packItem",
      "outputs": [],
      "payable": false,
      "stateMutability": "nonpayable",
      "type": "function"
    },
    {
      "constant": false,
      "inputs": [
        {
          "name": "_upc",
          "type": "uint256"
        },
        {
          "name": "_price",
          "type": "uint256"
        }
      ],
      "name": "sellItem",
      "outputs": [],
      "payable": false,
      "stateMutability": "nonpayable",
      "type": "function"
    },
    {
      "constant": false,
      "inputs": [
        {
          "name": "_upc",
          "type": "uint256"
        }
      ],
      "name": "buyItem",
      "outputs": [],
      "payable": true,
      "stateMutability": "payable",
      "type": "function"
    },
    {
      "constant": false,
      "inputs": [
        {
          "name": "_upc",
          "type": "uint256"
        }
      ],
      "name": "shipItem",
      "outputs": [],
      "payable": false,
      "stateMutability": "nonpayable",
      "type": "function"
    },
    {
      "constant": false,
      "inputs": [
        {
          "name": "_upc",
          "type": "uint256"
        }
      ],
      "name": "receiveItem",
      "outputs": [],
      "payable": false,
      "stateMutability": "nonpayable",
      "type": "function"
    },
    {
      "constant": false,
      "inputs": [
        {
          "name": "_upc",
          "type": "uint256"
        }
      ],
      "name": "purchaseItem",
      "outputs": [],
      "payable": false,
      "stateMutability": "nonpayable",
      "type": "function"
    },
    {
      "constant": true,
      "inputs": [
        {
          "name": "_upc",
          "type": "uint256"
        }
      ],
      "name": "fetchItemBufferOne",
      "outputs": [
        {
          "name": "itemSKU",
          "type": "uint256"
        },
        {
          "name": "itemUPC",
          "type": "uint256"
        },
        {
          "name": "ownerID",
          "type": "address"
        },
        {
          "name": "originFarmerID",
          "type": "address"
        },
        {
          "name": "originFarmName",
          "type": "string"
        },
        {
          "name": "originFarmInformation",
          "type": "string"
        },
        {
          "name": "originFarmLatitude",
          "type": "string"
        },
        {
          "name": "originFarmLongitude",
          "type": "string"
        }
      ],
      "payable": false,
      "stateMutability": "view",
      "type": "function"
    },
    {
      "constant": true,
      "inputs": [
        {
          "name": "_upc",
          "type": "uint256"
        }
      ],
      "name": "fetchItemBufferTwo",
      "outputs": [
        {
          "name": "itemSKU",
          "type": "uint256"
        },
        {
          "name": "itemUPC",
          "type": "uint256"
        },
        {
          "name": "productID",
          "type": "uint256"
        },
        {
          "name": "productNotes",
          "type": "string"
        },
        {
          "name": "productPrice",
          "type": "uint256"
        },
        {
          "name": "itemState",
          "type": "uint256"
        },
        {
          "name": "distributorID",
          "type": "address"
        },
        {
          "name": "retailerID",
          "type": "address"
        },
        {
          "name": "consumerID",
          "type": "address"
        }
      ],
      "payable": false,
      "stateMutability": "view",
      "type": "function"
    }
  ],
  "bytecode": "0x60806040523480156200001157600080fd5b50336000806101000a81548173ffffffffffffffffffffffffffffffffffffffff021916908373ffffffffffffffffffffffffffffffffffffffff1602179055506000809054906101000a900473ffffffffffffffffffffffffffffffffffffffff1673ffffffffffffffffffffffffffffffffffffffff16600073ffffffffffffffffffffffffffffffffffffffff167f5c486528ec3e3f0ea91181cff8116f02bfa350e03b8b6f12e00765adbb5af85c60405160405180910390a3620000e83362000153640100000000026401000000009004565b6200010233620001bd640100000000026401000000009004565b6200011c3362000224640100000000026401000000009004565b6200013d6004336200028b640100000000026200316f176401000000009004565b600160068190555060016005819055506200051e565b620001778160016200028b640100000000026200316f179091906401000000009004565b8073ffffffffffffffffffffffffffffffffffffffff167f2e0ded4123377a3c2bc9a26f1717655a129e2f20752924d42e730ec89c83dbd060405160405180910390a250565b620001de6002826200028b640100000000026200316f176401000000009004565b8073ffffffffffffffffffffffffffffffffffffffff167fddbf200aa634dc3fb81cfd68583dd1040d1c751d335e1d86b631bde3e977fea860405160405180910390a250565b620002456003826200028b640100000000026200316f176401000000009004565b8073ffffffffffffffffffffffffffffffffffffffff167f71ae26cad02663e3d92efd6ec56031a80d74a20c0ab4183faa8bf262261c9baa60405160405180910390a250565b600073ffffffffffffffffffffffffffffffffffffffff168173ffffffffffffffffffffffffffffffffffffffff161415151562000331576040517f08c379a00000000000000000000000000000000000000000000000000000000081526004018080602001828103825260158152602001807f4163636f756e742069732061646472657373283029000000000000000000000081525060200191505060405180910390fd5b6200034c828262000420640100000000026401000000009004565b151515620003c2576040517f08c379a00000000000000000000000000000000000000000000000000000000081526004018080602001828103825260188152602001807f4163636f756e7420616c72656164792068617320726f6c65000000000000000081525060200191505060405180910390fd5b60018260000160008373ffffffffffffffffffffffffffffffffffffffff1673ffffffffffffffffffffffffffffffffffffffff16815260200190815260200160002060006101000a81548160ff0219169083151502179055505050565b60008073ffffffffffffffffffffffffffffffffffffffff168273ffffffffffffffffffffffffffffffffffffffff1614151515620004c7576040517f08c379a00000000000000000000000000000000000000000000000000000000081526004018080602001828103825260158152602001807f4163636f756e742069732061646472657373283029000000000000000000000081525060200191505060405180910390fd5b8260000160008373ffffffffffffffffffffffffffffffffffffffff1673ffffffffffffffffffffffffffffffffffffffff16815260200190815260200160002060009054906101000a900460ff16905092915050565b613543806200052e6000396000f30060806040526004361061015f576000357c0100000000000000000000000000000000000000000000000000000000900463ffffffff168063112940f9146101645780632d923561146101a757806341c0e1b5146101de57806349dae766146101f55780635da09b881461022257806361e6982d1461027d578063644241db1461029457806366225ff9146102ab578063715018a61461040d5780637250e2241461042457806377c459131461046757806380c3f96d146106c557806380fc0ce414610708578063834ff7391461071f5780638da5cb5b1461077a5780638ec4f505146107d15780638f0c86fa146108145780638f32d59b1461086f578063a26be9991461089e578063b9429069146108cb578063bdd8a6a814610926578063d38ea5bf14610ad1578063db0e6a2f14610afe578063e7fb74c714610b15578063f2fde38b14610b35578063f30fc48014610b78578063f61c899a14610ba5575b600080fd5b34801561017057600080fd5b506101a5600480360381019080803573ffffffffffffffffffffffffffffffffffffffff169060200190929190505050610bd2565b005b3480156101b357600080fd5b506101dc6004803603810190808035906020019092919080359060200190929190505050610c5d565b005b3480156101ea57600080fd5b506101f3610f1c565b005b34801561020157600080fd5b5061022060048036038101908080359060200190929190505050610f79565b005b34801561022e57600080fd5b50610263600480360381019080803573ffffffffffffffffffffffffffffffffffffffff16906020019092919050505061121c565b604051808215151515815260200191505060405180910390f35b34801561028957600080fd5b50610292611230565b005b3480156102a057600080fd5b506102a961123b565b005b3480156102b757600080fd5b506102d660048036038101908080359060200190929190505050611246565b604051808a8152602001898152602001888152602001806020018781526020018681526020018573ffffffffffffffffffffffffffffffffffffffff1673ffffffffffffffffffffffffffffffffffffffff1681526020018473ffffffffffffffffffffffffffffffffffffffff1673ffffffffffffffffffffffffffffffffffffffff1681526020018373ffffffffffffffffffffffffffffffffffffffff1673ffffffffffffffffffffffffffffffffffffffff168152602001828103825288818151815260200191508051906020019080838360005b838110156103ca5780820151818401526020810190506103af565b50505050905090810190601f1680156103f75780820380516001836020036101000a031916815260200191505b509a505050505050505050505060405180910390f35b34801561041957600080fd5b5061042261146e565b005b34801561043057600080fd5b50610465600480360381019080803573ffffffffffffffffffffffffffffffffffffffff169060200190929190505050611540565b005b34801561047357600080fd5b50610492600480360381019080803590602001909291905050506115cb565b604051808981526020018881526020018773ffffffffffffffffffffffffffffffffffffffff1673ffffffffffffffffffffffffffffffffffffffff1681526020018673ffffffffffffffffffffffffffffffffffffffff1673ffffffffffffffffffffffffffffffffffffffff16815260200180602001806020018060200180602001858103855289818151815260200191508051906020019080838360005b8381101561054e578082015181840152602081019050610533565b50505050905090810190601f16801561057b5780820380516001836020036101000a031916815260200191505b50858103845288818151815260200191508051906020019080838360005b838110156105b4578082015181840152602081019050610599565b50505050905090810190601f1680156105e15780820380516001836020036101000a031916815260200191505b50858103835287818151815260200191508051906020019080838360005b8381101561061a5780820151818401526020810190506105ff565b50505050905090810190601f1680156106475780820380516001836020036101000a031916815260200191505b50858103825286818151815260200191508051906020019080838360005b83811015610680578082015181840152602081019050610665565b50505050905090810190601f1680156106ad5780820380516001836020036101000a031916815260200191505b509c5050505050505050505050505060405180910390f35b3480156106d157600080fd5b50610706600480360381019080803573ffffffffffffffffffffffffffffffffffffffff169060200190929190505050611962565b005b34801561071457600080fd5b5061071d6119eb565b005b34801561072b57600080fd5b50610760600480360381019080803573ffffffffffffffffffffffffffffffffffffffff1690602001909291905050506119f6565b604051808215151515815260200191505060405180910390f35b34801561078657600080fd5b5061078f611a0a565b604051808273ffffffffffffffffffffffffffffffffffffffff1673ffffffffffffffffffffffffffffffffffffffff16815260200191505060405180910390f35b3480156107dd57600080fd5b50610812600480360381019080803573ffffffffffffffffffffffffffffffffffffffff169060200190929190505050611a33565b005b34801561082057600080fd5b50610855600480360381019080803573ffffffffffffffffffffffffffffffffffffffff169060200190929190505050611abe565b604051808215151515815260200191505060405180910390f35b34801561087b57600080fd5b50610884611ad2565b604051808215151515815260200191505060405180910390f35b3480156108aa57600080fd5b506108c960048036038101908080359060200190929190505050611b29565b005b3480156108d757600080fd5b5061090c600480360381019080803573ffffffffffffffffffffffffffffffffffffffff169060200190929190505050611d9d565b604051808215151515815260200191505060405180910390f35b34801561093257600080fd5b50610acf60048036038101908080359060200190929190803573ffffffffffffffffffffffffffffffffffffffff169060200190929190803590602001908201803590602001908080601f0160208091040260200160405190810160405280939291908181526020018383808284378201915050505050509192919290803590602001908201803590602001908080601f0160208091040260200160405190810160405280939291908181526020018383808284378201915050505050509192919290803590602001908201803590602001908080601f0160208091040260200160405190810160405280939291908181526020018383808284378201915050505050509192919290803590602001908201803590602001908080601f0160208091040260200160405190810160405280939291908181526020018383808284378201915050505050509192919290803590602001908201803590602001908080601f0160208091040260200160405190810160405280939291908181526020018383808284378201915050505050509192919290505050611dba565b005b348015610add57600080fd5b50610afc6004803603810190808035906020019092919050505061209a565b005b348015610b0a57600080fd5b50610b1361230d565b005b610b3360048036038101908080359060200190929190505050612318565b005b348015610b4157600080fd5b50610b76600480360381019080803573ffffffffffffffffffffffffffffffffffffffff169060200190929190505050612777565b005b348015610b8457600080fd5b50610ba360048036038101908080359060200190929190505050612796565b005b348015610bb157600080fd5b50610bd060048036038101908080359060200190929190505050612a39565b005b610bdd600433612cde565b1515610c51576040517f08c379a00000000000000000000000000000000000000000000000000000000081526004018080602001828103825260188152602001807f53656e646572206973206e6f74206120436f6e73756d6572000000000000000081525060200191505060405180910390fd5b610c5a81612ddb565b50565b8160026007811115610c6b57fe5b60076000838152602001908152602001600020600b0160009054906101000a900460ff166007811115610c9a57fe5b141515610d35576040517f08c379a00000000000000000000000000000000000000000000000000000000081526004018080602001828103825260288152602001807f54686520636f72726573706f6e64696e67206974656d206973206e6f7420506181526020017f636b65642079657400000000000000000000000000000000000000000000000081525060400191505060405180910390fd5b6007600084815260200190815260200160002060020160009054906101000a900473ffffffffffffffffffffffffffffffffffffffff168073ffffffffffffffffffffffffffffffffffffffff163373ffffffffffffffffffffffffffffffffffffffff16141515610e0f576040517f08c379a000000000000000000000000000000000000000000000000000000000815260040180806020018281038252601d8152602001807f5468652073656e646572206d757374206265207468652063616c6c657200000081525060200191505060405180910390fd5b610e1833611d9d565b1515610e8c576040517f08c379a00000000000000000000000000000000000000000000000000000000081526004018080602001828103825260168152602001807f53656e646572206973206e6f742061204661726d65720000000000000000000081525060200191505060405180910390fd5b600360076000868152602001908152602001600020600b0160006101000a81548160ff02191690836007811115610ebf57fe5b02179055508260076000868152602001908152602001600020600a01819055507fa96ae0fc3224ebd79eebfe54bd130cc9cb94416cddd1f2386115e00b72532468846040518082815260200191505060405180910390a150505050565b610f24611a0a565b73ffffffffffffffffffffffffffffffffffffffff163373ffffffffffffffffffffffffffffffffffffffff161415610f7757610f5f611a0a565b73ffffffffffffffffffffffffffffffffffffffff16ff5b565b8060006007811115610f8757fe5b60076000838152602001908152602001600020600b0160009054906101000a900460ff166007811115610fb657fe5b141515611051576040517f08c379a000000000000000000000000000000000000000000000000000000000815260040180806020018281038252602b8152602001807f54686520636f72726573706f6e64696e67206974656d206973206e6f7420486181526020017f727665737465642079657400000000000000000000000000000000000000000081525060400191505060405180910390fd5b6007600083815260200190815260200160002060020160009054906101000a900473ffffffffffffffffffffffffffffffffffffffff168073ffffffffffffffffffffffffffffffffffffffff163373ffffffffffffffffffffffffffffffffffffffff1614151561112b576040517f08c379a000000000000000000000000000000000000000000000000000000000815260040180806020018281038252601d8152602001807f5468652073656e646572206d757374206265207468652063616c6c657200000081525060200191505060405180910390fd5b61113433611d9d565b15156111a8576040517f08c379a00000000000000000000000000000000000000000000000000000000081526004018080602001828103825260168152602001807f53656e646572206973206e6f742061204661726d65720000000000000000000081525060200191505060405180910390fd5b600160076000858152602001908152602001600020600b0160006101000a81548160ff021916908360078111156111db57fe5b02179055507f5afe3b1bf87069693c075da5c22a98d63d1aef98a30dbbe538d0781a98b77ee5836040518082815260200191505060405180910390a1505050565b6000611229600383612cde565b9050919050565b61123933612e2c565b565b61124433612e7d565b565b600080600060606000806000806000600760008b8152602001908152602001600020600001549850600760008b8152602001908152602001600020600101549750600760008b8152602001908152602001600020600801549650600760008b81526020019081526020016000206009018054600181600116156101000203166002900480601f01602080910402602001604051908101604052809291908181526020018280546001816001161561010002031660029004801561134a5780601f1061131f5761010080835404028352916020019161134a565b820191906000526020600020905b81548152906001019060200180831161132d57829003601f168201915b50505050509550600760008b8152602001908152602001600020600a01549450600760008b8152602001908152602001600020600b0160009054906101000a900460ff16600781111561139957fe5b9350600760008b8152602001908152602001600020600b0160019054906101000a900473ffffffffffffffffffffffffffffffffffffffff169250600760008b8152602001908152602001600020600c0160009054906101000a900473ffffffffffffffffffffffffffffffffffffffff169150600760008b8152602001908152602001600020600d0160009054906101000a900473ffffffffffffffffffffffffffffffffffffffff1690508888888888888888889850985098509850985098509850985098509193959799909294969850565b611476611ad2565b151561148157600080fd5b600073ffffffffffffffffffffffffffffffffffffffff166000809054906101000a900473ffffffffffffffffffffffffffffffffffffffff1673ffffffffffffffffffffffffffffffffffffffff167f5c486528ec3e3f0ea91181cff8116f02bfa350e03b8b6f12e00765adbb5af85c60405160405180910390a360008060006101000a81548173ffffffffffffffffffffffffffffffffffffffff021916908373ffffffffffffffffffffffffffffffffffffffff160217905550565b61154b600233612cde565b15156115bf576040517f08c379a000000000000000000000000000000000000000000000000000000000815260040180806020018281038252601b8152602001807f53656e646572206973206e6f742061206469737472696275746f72000000000081525060200191505060405180910390fd5b6115c881612ece565b50565b600080600080606080606080600760008a8152602001908152602001600020600001549750600760008a8152602001908152602001600020600101549650600760008a815260200190815260200160002060020160009054906101000a900473ffffffffffffffffffffffffffffffffffffffff169550600760008a815260200190815260200160002060030160009054906101000a900473ffffffffffffffffffffffffffffffffffffffff169450600760008a81526020019081526020016000206004018054600181600116156101000203166002900480601f0160208091040260200160405190810160405280929190818152602001828054600181600116156101000203166002900480156117255780601f106116fa57610100808354040283529160200191611725565b820191906000526020600020905b81548152906001019060200180831161170857829003601f168201915b50505050509350600760008a81526020019081526020016000206005018054600181600116156101000203166002900480601f0160208091040260200160405190810160405280929190818152602001828054600181600116156101000203166002900480156117d65780601f106117ab576101008083540402835291602001916117d6565b820191906000526020600020905b8154815290600101906020018083116117b957829003601f168201915b50505050509250600760008a81526020019081526020016000206006018054600181600116156101000203166002900480601f0160208091040260200160405190810160405280929190818152602001828054600181600116156101000203166002900480156118875780601f1061185c57610100808354040283529160200191611887565b820191906000526020600020905b81548152906001019060200180831161186a57829003601f168201915b50505050509150600760008a81526020019081526020016000206007018054600181600116156101000203166002900480601f0160208091040260200160405190810160405280929190818152602001828054600181600116156101000203166002900480156119385780601f1061190d57610100808354040283529160200191611938565b820191906000526020600020905b81548152906001019060200180831161191b57829003601f168201915b50505050509050878787878787878797509750975097509750975097509750919395975091939597565b61196b33611d9d565b15156119df576040517f08c379a00000000000000000000000000000000000000000000000000000000081526004018080602001828103825260168152602001807f53656e646572206973206e6f742061204661726d65720000000000000000000081525060200191505060405180910390fd5b6119e881612f1f565b50565b6119f433612f79565b565b6000611a03600483612cde565b9050919050565b60008060009054906101000a900473ffffffffffffffffffffffffffffffffffffffff16905090565b611a3e600333612cde565b1515611ab2576040517f08c379a00000000000000000000000000000000000000000000000000000000081526004018080602001828103825260188152602001807f53656e646572206973206e6f7420612052657461696c6572000000000000000081525060200191505060405180910390fd5b611abb81612fd3565b50565b6000611acb600283612cde565b9050919050565b60008060009054906101000a900473ffffffffffffffffffffffffffffffffffffffff1673ffffffffffffffffffffffffffffffffffffffff163373ffffffffffffffffffffffffffffffffffffffff1614905090565b8060056007811115611b3757fe5b60076000838152602001908152602001600020600b0160009054906101000a900460ff166007811115611b6657fe5b141515611c01576040517f08c379a00000000000000000000000000000000000000000000000000000000081526004018080602001828103825260298152602001807f54686520636f72726573706f6e64696e67206974656d206973206e6f7420536881526020017f697070656420796574000000000000000000000000000000000000000000000081525060400191505060405180910390fd5b611c0c600333612cde565b1515611c80576040517f08c379a00000000000000000000000000000000000000000000000000000000081526004018080602001828103825260188152602001807f53656e646572206973206e6f7420612052657461696c6572000000000000000081525060200191505060405180910390fd5b600660076000848152602001908152602001600020600b0160006101000a81548160ff02191690836007811115611cb357fe5b0217905550336007600084815260200190815260200160002060020160006101000a81548173ffffffffffffffffffffffffffffffffffffffff021916908373ffffffffffffffffffffffffffffffffffffffff1602179055503360076000848152602001908152602001600020600c0160006101000a81548173ffffffffffffffffffffffffffffffffffffffff021916908373ffffffffffffffffffffffffffffffffffffffff1602179055507fa8142743f8f70a4c26f3691cf4ed59718381fb2f18070ec52be1f1022d855557826040518082815260200191505060405180910390a15050565b6000611db3826001612cde90919063ffffffff16565b9050919050565b611dc333611d9d565b1515611e37576040517f08c379a00000000000000000000000000000000000000000000000000000000081526004018080602001828103825260168152602001807f53656e646572206973206e6f742061204661726d65720000000000000000000081525060200191505060405180910390fd5b600060076000898152602001908152602001600020600b0160006101000a81548160ff02191690836007811115611e6a57fe5b0217905550611e77611a0a565b6007600089815260200190815260200160002060020160006101000a81548173ffffffffffffffffffffffffffffffffffffffff021916908373ffffffffffffffffffffffffffffffffffffffff1602179055508660076000898152602001908152602001600020600101819055506006546007600089815260200190815260200160002060000181905550856007600089815260200190815260200160002060030160006101000a81548173ffffffffffffffffffffffffffffffffffffffff021916908373ffffffffffffffffffffffffffffffffffffffff16021790555084600760008981526020019081526020016000206004019080519060200190611f82929190613472565b5083600760008981526020019081526020016000206005019080519060200190611fad929190613472565b5082600760008981526020019081526020016000206006019080519060200190611fd8929190613472565b5081600760008981526020019081526020016000206007019080519060200190612003929190613472565b508060076000898152602001908152602001600020600901908051906020019061202e929190613472565b50600654870160076000898152602001908152602001600020600801819055506001600654016006819055507f8e55ccfc9778ff8eba1646d765cf1982537ce0f9257054a17b48aad745250183876040518082815260200191505060405180910390a150505050505050565b80600660078111156120a857fe5b60076000838152602001908152602001600020600b0160009054906101000a900460ff1660078111156120d757fe5b141515612172576040517f08c379a000000000000000000000000000000000000000000000000000000000815260040180806020018281038252602a8152602001807f54686520636f72726573706f6e64696e67206974656d206973206e6f7420526581526020017f636569766564207965740000000000000000000000000000000000000000000081525060400191505060405180910390fd5b61217d600433612cde565b15156121f1576040517f08c379a00000000000000000000000000000000000000000000000000000000081526004018080602001828103825260188152602001807f53656e646572206973206e6f74206120436f6e73756d6572000000000000000081525060200191505060405180910390fd5b6007806000848152602001908152602001600020600b0160006101000a81548160ff0219169083600781111561222357fe5b0217905550336007600084815260200190815260200160002060020160006101000a81548173ffffffffffffffffffffffffffffffffffffffff021916908373ffffffffffffffffffffffffffffffffffffffff1602179055503360076000848152602001908152602001600020600d0160006101000a81548173ffffffffffffffffffffffffffffffffffffffff021916908373ffffffffffffffffffffffffffffffffffffffff1602179055507f653d56639fee6b566a5c804764e9689de38645f0b733df89a36a1b7b42173dd8826040518082815260200191505060405180910390a15050565b61231633613024565b565b806003600781111561232657fe5b60076000838152602001908152602001600020600b0160009054906101000a900460ff16600781111561235557fe5b1415156123f0576040517f08c379a00000000000000000000000000000000000000000000000000000000081526004018080602001828103825260298152602001807f54686520636f72726573706f6e64696e67206974656d206973206e6f7420466f81526020017f7253616c6520796574000000000000000000000000000000000000000000000081525060400191505060405180910390fd5b60076000838152602001908152602001600020600a01548034101515156124a5576040517f08c379a00000000000000000000000000000000000000000000000000000000081526004018080602001828103825260348152602001807f546865207061696420616d6f756e74206973206e6f742073756666696369656e81526020017f7420746f20636f7665722074686520707269636500000000000000000000000081525060400191505060405180910390fd5b346000806124b4600233612cde565b1515612528576040517f08c379a000000000000000000000000000000000000000000000000000000000815260040180806020018281038252601b8152602001807f53656e646572206973206e6f742061206469737472696275746f72000000000081525060200191505060405180910390fd5b600460076000888152602001908152602001600020600b0160006101000a81548160ff0219169083600781111561255b57fe5b0217905550336007600088815260200190815260200160002060020160006101000a81548173ffffffffffffffffffffffffffffffffffffffff021916908373ffffffffffffffffffffffffffffffffffffffff1602179055503360076000888152602001908152602001600020600b0160016101000a81548173ffffffffffffffffffffffffffffffffffffffff021916908373ffffffffffffffffffffffffffffffffffffffff1602179055506007600087815260200190815260200160002060030160009054906101000a900473ffffffffffffffffffffffffffffffffffffffff1673ffffffffffffffffffffffffffffffffffffffff166108fc60076000898152602001908152602001600020600a01549081150290604051600060405180830381858888f1935050505015801561269c573d6000803e3d6000fd5b507f92f64ca637d023f354075a4be751b169c1a8a9ccb6d33cdd0cb3520543995727866040518082815260200191505060405180910390a160076000848152602001908152602001600020600a01549150813403905060076000848152602001908152602001600020600d0160009054906101000a900473ffffffffffffffffffffffffffffffffffffffff1673ffffffffffffffffffffffffffffffffffffffff166108fc829081150290604051600060405180830381858888f1935050505015801561276e573d6000803e3d6000fd5b50505050505050565b61277f611ad2565b151561278a57600080fd5b61279381613075565b50565b80600160078111156127a457fe5b60076000838152602001908152602001600020600b0160009054906101000a900460ff1660078111156127d357fe5b14151561286e576040517f08c379a000000000000000000000000000000000000000000000000000000000815260040180806020018281038252602b8152602001807f54686520636f72726573706f6e64696e67206974656d206973206e6f7420507281526020017f6f6365737365642079657400000000000000000000000000000000000000000081525060400191505060405180910390fd5b6007600083815260200190815260200160002060020160009054906101000a900473ffffffffffffffffffffffffffffffffffffffff168073ffffffffffffffffffffffffffffffffffffffff163373ffffffffffffffffffffffffffffffffffffffff16141515612948576040517f08c379a000000000000000000000000000000000000000000000000000000000815260040180806020018281038252601d8152602001807f5468652073656e646572206d757374206265207468652063616c6c657200000081525060200191505060405180910390fd5b61295133611d9d565b15156129c5576040517f08c379a00000000000000000000000000000000000000000000000000000000081526004018080602001828103825260168152602001807f53656e646572206973206e6f742061204661726d65720000000000000000000081525060200191505060405180910390fd5b600260076000858152602001908152602001600020600b0160006101000a81548160ff021916908360078111156129f857fe5b02179055507f9b3b66e2380b690bae22c73ef1428fb0c91e72fe14a4b6defa13035214187aff836040518082815260200191505060405180910390a1505050565b8060046007811115612a4757fe5b60076000838152602001908152602001600020600b0160009054906101000a900460ff166007811115612a7657fe5b141515612b11576040517f08c379a00000000000000000000000000000000000000000000000000000000081526004018080602001828103825260268152602001807f54686520636f72726573706f6e64696e67206974656d206973206e6f7420536f81526020017f6c6420796574000000000000000000000000000000000000000000000000000081525060400191505060405180910390fd5b6007600083815260200190815260200160002060020160009054906101000a900473ffffffffffffffffffffffffffffffffffffffff168073ffffffffffffffffffffffffffffffffffffffff163373ffffffffffffffffffffffffffffffffffffffff16141515612beb576040517f08c379a000000000000000000000000000000000000000000000000000000000815260040180806020018281038252601d8152602001807f5468652073656e646572206d757374206265207468652063616c6c657200000081525060200191505060405180910390fd5b612bf6600233612cde565b1515612c6a576040517f08c379a000000000000000000000000000000000000000000000000000000000815260040180806020018281038252601b8152602001807f53656e646572206973206e6f742061206469737472696275746f72000000000081525060200191505060405180910390fd5b600560076000858152602001908152602001600020600b0160006101000a81548160ff02191690836007811115612c9d57fe5b02179055507ff00b9a5725b80c54016f42114f6ed7792d22eecb116011c4afac29c57bef6c95836040518082815260200191505060405180910390a1505050565b60008073ffffffffffffffffffffffffffffffffffffffff168273ffffffffffffffffffffffffffffffffffffffff1614151515612d84576040517f08c379a00000000000000000000000000000000000000000000000000000000081526004018080602001828103825260158152602001807f4163636f756e742069732061646472657373283029000000000000000000000081525060200191505060405180910390fd5b8260000160008373ffffffffffffffffffffffffffffffffffffffff1673ffffffffffffffffffffffffffffffffffffffff16815260200190815260200160002060009054906101000a900460ff16905092915050565b612de660048261316f565b8073ffffffffffffffffffffffffffffffffffffffff167f28b26e7a3d20aedbc5f8f2ebf7da671c0491723a2b78f47a097b0e46dee0714260405160405180910390a250565b612e376004826132f1565b8073ffffffffffffffffffffffffffffffffffffffff167fe3f5ed5f263f1f01764a96edfc7d025f511ec5f7d180e8816908b78bcf74f09860405160405180910390a250565b612e886002826132f1565b8073ffffffffffffffffffffffffffffffffffffffff167f126174f6cf49c81cdb4a9214c6b8f037bef55b4ec31e4fc776cea2a1c8a88d5960405160405180910390a250565b612ed960028261316f565b8073ffffffffffffffffffffffffffffffffffffffff167fddbf200aa634dc3fb81cfd68583dd1040d1c751d335e1d86b631bde3e977fea860405160405180910390a250565b612f3381600161316f90919063ffffffff16565b8073ffffffffffffffffffffffffffffffffffffffff167f2e0ded4123377a3c2bc9a26f1717655a129e2f20752924d42e730ec89c83dbd060405160405180910390a250565b612f8d8160016132f190919063ffffffff16565b8073ffffffffffffffffffffffffffffffffffffffff167fa5e0f060af304ab17dd418c7927e3da3ae7868189bf387aee09ab179ccc572f260405160405180910390a250565b612fde60038261316f565b8073ffffffffffffffffffffffffffffffffffffffff167f71ae26cad02663e3d92efd6ec56031a80d74a20c0ab4183faa8bf262261c9baa60405160405180910390a250565b61302f6003826132f1565b8073ffffffffffffffffffffffffffffffffffffffff167fdb7176e79cffef81cb01767dd0447a0b24bb72ca9778d4b245581086b2a7e6db60405160405180910390a250565b600073ffffffffffffffffffffffffffffffffffffffff168173ffffffffffffffffffffffffffffffffffffffff16141515156130b157600080fd5b8073ffffffffffffffffffffffffffffffffffffffff166000809054906101000a900473ffffffffffffffffffffffffffffffffffffffff1673ffffffffffffffffffffffffffffffffffffffff167f5c486528ec3e3f0ea91181cff8116f02bfa350e03b8b6f12e00765adbb5af85c60405160405180910390a3806000806101000a81548173ffffffffffffffffffffffffffffffffffffffff021916908373ffffffffffffffffffffffffffffffffffffffff16021790555050565b600073ffffffffffffffffffffffffffffffffffffffff168173ffffffffffffffffffffffffffffffffffffffff1614151515613214576040517f08c379a00000000000000000000000000000000000000000000000000000000081526004018080602001828103825260158152602001807f4163636f756e742069732061646472657373283029000000000000000000000081525060200191505060405180910390fd5b61321e8282612cde565b151515613293576040517f08c379a00000000000000000000000000000000000000000000000000000000081526004018080602001828103825260188152602001807f4163636f756e7420616c72656164792068617320726f6c65000000000000000081525060200191505060405180910390fd5b60018260000160008373ffffffffffffffffffffffffffffffffffffffff1673ffffffffffffffffffffffffffffffffffffffff16815260200190815260200160002060006101000a81548160ff0219169083151502179055505050565b600073ffffffffffffffffffffffffffffffffffffffff168173ffffffffffffffffffffffffffffffffffffffff1614151515613396576040517f08c379a00000000000000000000000000000000000000000000000000000000081526004018080602001828103825260158152602001807f4163636f756e742069732061646472657373283029000000000000000000000081525060200191505060405180910390fd5b6133a08282612cde565b1515613414576040517f08c379a00000000000000000000000000000000000000000000000000000000081526004018080602001828103825260138152602001807f4163636f756e7420686173206e6f20726f6c650000000000000000000000000081525060200191505060405180910390fd5b60008260000160008373ffffffffffffffffffffffffffffffffffffffff1673ffffffffffffffffffffffffffffffffffffffff16815260200190815260200160002060006101000a81548160ff0219169083151502179055505050565b828054600181600116156101000203166002900490600052602060002090601f016020900481019282601f106134b357805160ff19168380011785556134e1565b828001600101855582156134e1579182015b828111156134e05782518255916020019190600101906134c5565b5b5090506134ee91906134f2565b5090565b61351491905b808211156135105760008160009055506001016134f8565b5090565b905600a165627a7a723058203691d1b2fd90d127bf9348a6d51c2c2342a7adf8f361238c7b6e16af2a1092df0029",
  "source": "pragma solidity >=0.4.24;\n\nimport \"../coffeecore/Ownable.sol\";\nimport \"../coffeeaccesscontrol/ConsumerRole.sol\";\nimport \"../coffeeaccesscontrol/RetailerRole.sol\";\nimport \"../coffeeaccesscontrol/DistributorRole.sol\";\nimport \"../coffeeaccesscontrol/FarmerRole.sol\";\n\n\n// Define a contract 'Supplychain'\ncontract SupplyChain is\n    Ownable,\n    FarmerRole,\n    DistributorRole,\n    RetailerRole,\n    ConsumerRole\n{\n    // Define 'owner'\n    //Ownable\n    //address payable owner;\n\n    // Define a variable called 'upc' for Universal Product Code (UPC)\n    uint256 upc;\n\n    // Define a variable called 'sku' for Stock Keeping Unit (SKU)\n    uint256 sku;\n\n    // Define a public mapping 'items' that maps the UPC to an Item.\n    mapping(uint256 => Item) items;\n\n    // Define a public mapping 'itemsHistory' that maps the UPC to an array of TxHash,\n    // that track its journey through the supply chain -- to be sent from DApp.\n    mapping(uint256 => string[]) itemsHistory;\n\n    // Define enum 'State' with the following values:\n    enum State {\n        Harvested, // 0\n        Processed, // 1\n        Packed, // 2\n        ForSale, // 3\n        Sold, // 4\n        Shipped, // 5\n        Received, // 6\n        Purchased // 7\n    }\n\n    State constant defaultState = State.Harvested;\n\n    // Define a struct 'Item' with the following fields:\n    struct Item {\n        uint256 sku; // Stock Keeping Unit (SKU)\n        uint256 upc; // Universal Product Code (UPC), generated by the Farmer, goes on the package, can be verified by the Consumer\n        address ownerID; // Metamask-Ethereum address of the current owner as the product moves through 8 stages\n        address originFarmerID; // Metamask-Ethereum address of the Farmer\n        string originFarmName; // Farmer Name\n        string originFarmInformation; // Farmer Information\n        string originFarmLatitude; // Farm Latitude\n        string originFarmLongitude; // Farm Longitude\n        uint256 productID; // Product ID potentially a combination of upc + sku\n        string productNotes; // Product Notes\n        uint256 productPrice; // Product Price\n        State itemState; // Product State as represented in the enum above\n        address distributorID; // Metamask-Ethereum address of the Distributor\n        address retailerID; // Metamask-Ethereum address of the Retailer\n        address consumerID; // Metamask-Ethereum address of the Consumer\n    }\n\n    // Define 8 events with the same 8 state values and accept 'upc' as input argument\n    event Harvested(uint256 upc);\n    event Processed(uint256 upc);\n    event Packed(uint256 upc);\n    event ForSale(uint256 upc);\n    event Sold(uint256 upc);\n    event Shipped(uint256 upc);\n    event Received(uint256 upc);\n    event Purchased(uint256 upc);\n\n    // Define a modifer that checks to see if msg.sender == owner of the contract\n    //Ownable\n    /* modifier onlyOwner() {\n        require(msg.sender == owner, \"The sender must be the owner of the contract\");\n        _;\n    }*/\n\n    // Define a modifer that verifies the Caller\n    modifier verifyCaller(address _address) {\n        require(msg.sender == _address, \"The sender must be the caller\");\n        _;\n    }\n\n    // Define a modifier that checks if the paid amount is sufficient to cover the price\n    modifier paidEnough(uint256 _price) {\n        require(\n            msg.value >= _price,\n            \"The paid amount is not sufficient to cover the price\"\n        );\n        _;\n    }\n\n    // Define a modifier that checks the price and refunds the remaining balance\n    modifier checkValue(uint256 _upc) {\n        _;\n        uint256 _price = items[_upc].productPrice;\n        uint256 amountToReturn = msg.value - _price;\n        items[_upc].consumerID.transfer(amountToReturn);\n    }\n\n    // Define a modifier that checks if an item.state of a upc is Harvested\n    modifier harvested(uint256 _upc) {\n        require(\n            items[_upc].itemState == State.Harvested,\n            \"The corresponding item is not Harvested yet\"\n        );\n        _;\n    }\n\n    // Define a modifier that checks if an item.state of a upc is Processed\n    modifier processed(uint256 _upc) {\n        require(\n            items[_upc].itemState == State.Processed,\n            \"The corresponding item is not Processed yet\"\n        );\n        _;\n    }\n\n    // Define a modifier that checks if an item.state of a upc is Packed\n    modifier packed(uint256 _upc) {\n        require(\n            items[_upc].itemState == State.Packed,\n            \"The corresponding item is not Packed yet\"\n        );\n        _;\n    }\n\n    // Define a modifier that checks if an item.state of a upc is ForSale\n    modifier forSale(uint256 _upc) {\n        require(\n            items[_upc].itemState == State.ForSale,\n            \"The corresponding item is not ForSale yet\"\n        );\n        _;\n    }\n\n    // Define a modifier that checks if an item.state of a upc is Sold\n    modifier sold(uint256 _upc) {\n        require(\n            items[_upc].itemState == State.Sold,\n            \"The corresponding item is not Sold yet\"\n        );\n        _;\n    }\n\n    // Define a modifier that checks if an item.state of a upc is Shipped\n    modifier shipped(uint256 _upc) {\n        require(\n            items[_upc].itemState == State.Shipped,\n            \"The corresponding item is not Shipped yet\"\n        );\n        _;\n    }\n\n    // Define a modifier that checks if an item.state of a upc is Received\n    modifier received(uint256 _upc) {\n        require(\n            items[_upc].itemState == State.Received,\n            \"The corresponding item is not Received yet\"\n        );\n        _;\n    }\n\n    // Define a modifier that checks if an item.state of a upc is Purchased\n    modifier purchased(uint256 _upc) {\n        require(\n            items[_upc].itemState == State.Processed,\n            \"The corresponding item is not Purchased yet\"\n        );\n        _;\n    }\n\n    // In the constructor set 'owner' to the address that instantiated the contract\n    // and set 'sku' to 1\n    // and set 'upc' to 1\n    constructor() public {\n        //Ownable\n        //owner = msg.sender;\n        sku = 1;\n        upc = 1;\n    }\n\n    // Define a function 'kill' if required\n    function kill() public {\n        if (msg.sender == owner()) {\n            selfdestruct(owner());\n        }\n    }\n\n    // Define a function 'harvestItem' that allows a farmer to mark an item 'Harvested'\n    function harvestItem(\n        uint256 _upc,\n        address _originFarmerID,\n        string memory _originFarmName,\n        string memory _originFarmInformation,\n        string memory _originFarmLatitude,\n        string memory _originFarmLongitude,\n        string memory _productNotes\n    ) public onlyFarmer {\n        // Add the new item as part of Harvest\n        items[_upc].itemState = State.Harvested;\n\n        items[_upc].ownerID = owner();\n        items[_upc].upc = _upc;\n        items[_upc].sku = sku;\n\n        items[_upc].originFarmerID = _originFarmerID;\n        items[_upc].originFarmName = _originFarmName;\n        items[_upc].originFarmInformation = _originFarmInformation;\n        items[_upc].originFarmLatitude = _originFarmLatitude;\n        items[_upc].originFarmLongitude = _originFarmLongitude;\n        items[_upc].productNotes = _productNotes;\n        items[_upc].productID = _upc + sku;\n\n        // Increment sku\n        sku = sku + 1;\n\n        // Emit the appropriate event\n        emit Harvested(_upc);\n    }\n\n    // Define a function 'processtItem' that allows a farmer to mark an item 'Processed'\n    function processItem(uint256 _upc)\n        public\n        // Call modifier to check if upc has passed previous supply chain stage\n        harvested(_upc)\n        // Call modifier to verify caller of this function\n        verifyCaller(items[_upc].ownerID)\n        onlyFarmer\n    {\n        // Update the appropriate fields\n        items[_upc].itemState = State.Processed;\n\n        // Emit the appropriate event\n        emit Processed(_upc);\n    }\n\n    // Define a function 'packItem' that allows a farmer to mark an item 'Packed'\n    function packItem(uint256 _upc)\n        public\n        // Call modifier to check if upc has passed previous supply chain stage\n        processed(_upc)\n        // Call modifier to verify caller of this function\n        verifyCaller(items[_upc].ownerID)\n        onlyFarmer\n    {\n        // Update the appropriate fields\n        items[_upc].itemState = State.Packed;\n\n        // Emit the appropriate event\n        emit Packed(_upc);\n    }\n\n    // Define a function 'sellItem' that allows a farmer to mark an item 'ForSale'\n    function sellItem(uint256 _upc, uint256 _price)\n        public\n        // Call modifier to check if upc has passed previous supply chain stage\n        packed(_upc)\n        // Call modifier to verify caller of this function\n        verifyCaller(items[_upc].ownerID)\n        onlyFarmer\n    {\n        // Update the appropriate fields\n        items[_upc].itemState = State.ForSale;\n        items[_upc].productPrice = _price;\n\n        // Emit the appropriate event\n        emit ForSale(_upc);\n    }\n\n    // Define a function 'buyItem' that allows the disributor to mark an item 'Sold'\n    // Use the above defined modifiers to check if the item is available for sale, if the buyer has paid enough,\n    // and any excess ether sent is refunded back to the buyer\n    function buyItem(uint256 _upc)\n        public\n        payable\n        // Call modifier to check if upc has passed previous supply chain stage\n        forSale(_upc)\n        // Call modifer to check if buyer has paid enough\n        paidEnough(items[_upc].productPrice)\n        // Call modifer to send any excess ether back to buyer\n        checkValue(msg.value)\n        onlyDistributor\n    {\n        // Update the appropriate fields - ownerID, distributorID, itemState\n        items[_upc].itemState = State.Sold;\n        items[_upc].ownerID = msg.sender;\n        items[_upc].distributorID = msg.sender;\n\n        // Transfer money to farmer\n        items[_upc].originFarmerID.transfer(items[_upc].productPrice);\n\n        // emit the appropriate event\n        emit Sold(_upc);\n    }\n\n    // Define a function 'shipItem' that allows the distributor to mark an item 'Shipped'\n    // Use the above modifers to check if the item is sold\n    function shipItem(uint256 _upc)\n        public\n        // Call modifier to check if upc has passed previous supply chain stage\n        sold(_upc)\n        // Call modifier to verify caller of this function\n        verifyCaller(items[_upc].ownerID)\n        onlyDistributor\n    {\n        // Update the appropriate fields\n        items[_upc].itemState = State.Shipped;\n\n        // Emit the appropriate event\n        emit Shipped(_upc);\n    }\n\n    // Define a function 'receiveItem' that allows the retailer to mark an item 'Received'\n    // Use the above modifiers to check if the item is shipped\n    function receiveItem(uint256 _upc)\n        public\n        // Call modifier to check if upc has passed previous supply chain stage\n        shipped(_upc)\n        // Access Control List enforced by calling Smart Contract / DApp\n        onlyRetailer\n    {\n        // Update the appropriate fields - ownerID, retailerID, itemState\n        items[_upc].itemState = State.Received;\n        items[_upc].ownerID = msg.sender;\n        items[_upc].retailerID = msg.sender;\n        // Emit the appropriate event\n        emit Received(_upc);\n    }\n\n    // Define a function 'purchaseItem' that allows the consumer to mark an item 'Purchased'\n    // Use the above modifiers to check if the item is received\n    function purchaseItem(uint256 _upc)\n        public\n        // Call modifier to check if upc has passed previous supply chain stage\n        received(_upc)\n        // Access Control List enforced by calling Smart Contract / DApp\n        onlyConsumer\n    {\n        // Update the appropriate fields - ownerID, consumerID, itemState\n        items[_upc].itemState = State.Purchased;\n        items[_upc].ownerID = msg.sender;\n        items[_upc].consumerID = msg.sender;\n\n        // Emit the appropriate event\n        emit Purchased(_upc);\n    }\n\n    // Define a function 'fetchItemBufferOne' that fetches the data\n    function fetchItemBufferOne(uint256 _upc)\n        public\n        view\n        returns (\n            uint256 itemSKU,\n            uint256 itemUPC,\n            address ownerID,\n            address originFarmerID,\n            string memory originFarmName,\n            string memory originFarmInformation,\n            string memory originFarmLatitude,\n            string memory originFarmLongitude\n        )\n    {\n        // Assign values to the 8 parameters\n        itemSKU = items[_upc].sku;\n        itemUPC = items[_upc].upc;\n        ownerID = items[_upc].ownerID;\n        originFarmerID = items[_upc].originFarmerID;\n        originFarmName = items[_upc].originFarmName;\n        originFarmInformation = items[_upc].originFarmInformation;\n        originFarmLatitude = items[_upc].originFarmLatitude;\n        originFarmLongitude = items[_upc].originFarmLongitude;\n\n        return (\n            itemSKU,\n            itemUPC,\n            ownerID,\n            originFarmerID,\n            originFarmName,\n            originFarmInformation,\n            originFarmLatitude,\n            originFarmLongitude\n        );\n    }\n\n    // Define a function 'fetchItemBufferTwo' that fetches the data\n    function fetchItemBufferTwo(uint256 _upc)\n        public\n        view\n        returns (\n            uint256 itemSKU,\n            uint256 itemUPC,\n            uint256 productID,\n            string memory productNotes,\n            uint256 productPrice,\n            uint256 itemState,\n            address distributorID,\n            address retailerID,\n            address consumerID\n        )\n    {\n        // Assign values to the 9 parameters\n        itemSKU = items[_upc].sku;\n        itemUPC = items[_upc].upc;\n        productID = items[_upc].productID;\n        productNotes = items[_upc].productNotes;\n        productPrice = items[_upc].productPrice;\n        itemState = (uint256)(items[_upc].itemState);\n        distributorID = items[_upc].distributorID;\n        retailerID = items[_upc].retailerID;\n        consumerID = items[_upc].consumerID;\n\n        return (\n            itemSKU,\n            itemUPC,\n            productID,\n            productNotes,\n            productPrice,\n            itemState,\n            distributorID,\n            retailerID,\n            consumerID\n        );\n    }\n}\n",
  "sourcePath": "/home/eze-ebube/Documents/learn/BlockChain Nanodegree/blockchain-supply-chain-solution/contracts/coffeebase/SupplyChain.sol",
  "compiler": {
    "name": "solc",
    "version": "0.4.24+commit.e67f0147.Emscripten.clang"
  },
  "schemaVersion": "3.1.0",
  "updatedAt": "2020-05-09T06:12:17.941Z",
  "networkType": "ethereum",
  "devdoc": {
    "methods": {}
  },
  "userdoc": {
    "methods": {
      "isOwner()": {
        "notice": "Check if the calling address is the owner of the contract"
      },
      "owner()": {
        "notice": "Look up the address of the owner"
      },
      "renounceOwnership()": {
        "notice": "Define a function to renounce ownerhip"
      },
      "transferOwnership(address)": {
        "notice": "Define a public function to transfer ownership"
      }
    }
  }
}